{
  "contractName": "HealthcareRecord",
  "abi": [
    {
      "constant": true,
      "inputs": [
        {
          "name": "",
          "type": "uint256"
        }
      ],
      "name": "patients",
      "outputs": [
        {
          "name": "id",
          "type": "uint256"
        },
        {
          "name": "name",
          "type": "string"
        },
        {
          "name": "dob",
          "type": "string"
        },
        {
          "name": "gender",
          "type": "string"
        },
        {
          "name": "contactnumber",
          "type": "string"
        },
        {
          "name": "residentialaddress",
          "type": "string"
        },
        {
          "name": "bcaddress",
          "type": "string"
        }
      ],
      "payable": false,
      "stateMutability": "view",
      "type": "function"
    },
    {
      "constant": true,
      "inputs": [],
      "name": "patientCount",
      "outputs": [
        {
          "name": "",
          "type": "uint256"
        }
      ],
      "payable": false,
      "stateMutability": "view",
      "type": "function"
    },
    {
      "inputs": [],
      "payable": false,
      "stateMutability": "nonpayable",
      "type": "constructor"
    },
    {
      "anonymous": false,
      "inputs": [
        {
          "indexed": false,
          "name": "id",
          "type": "uint256"
        },
        {
          "indexed": false,
          "name": "name",
          "type": "string"
        },
        {
          "indexed": false,
          "name": "dob",
          "type": "string"
        },
        {
          "indexed": false,
          "name": "gender",
          "type": "string"
        },
        {
          "indexed": false,
          "name": "contactnumber",
          "type": "string"
        },
        {
          "indexed": false,
          "name": "residentialaddress",
          "type": "string"
        },
        {
          "indexed": false,
          "name": "bcaddress",
          "type": "string"
        }
      ],
      "name": "PatientAdded",
      "type": "event"
    },
    {
      "anonymous": false,
      "inputs": [
        {
          "indexed": false,
          "name": "id",
          "type": "uint256"
        },
        {
          "indexed": false,
          "name": "contactnumber",
          "type": "string"
        },
        {
          "indexed": false,
          "name": "residentialaddress",
          "type": "string"
        }
      ],
      "name": "PatientUpdated",
      "type": "event"
    },
    {
      "constant": false,
      "inputs": [
        {
          "name": "_name",
          "type": "string"
        },
        {
          "name": "_dob",
          "type": "string"
        },
        {
          "name": "_gender",
          "type": "string"
        },
        {
          "name": "_contactnumber",
          "type": "string"
        },
        {
          "name": "_residentialaddress",
          "type": "string"
        },
        {
          "name": "_bcaddress",
          "type": "string"
        }
      ],
      "name": "addPatient",
      "outputs": [],
      "payable": false,
      "stateMutability": "nonpayable",
      "type": "function"
    },
    {
      "constant": true,
      "inputs": [
        {
          "name": "_bcaddress",
          "type": "string"
        }
      ],
      "name": "viewPatient",
      "outputs": [
        {
          "name": "id",
          "type": "uint256"
        },
        {
          "name": "",
          "type": "string"
        },
        {
          "name": "",
          "type": "string"
        },
        {
          "name": "",
          "type": "string"
        },
        {
          "name": "",
          "type": "string"
        },
        {
          "name": "",
          "type": "string"
        },
        {
          "name": "",
          "type": "string"
        }
      ],
      "payable": false,
      "stateMutability": "view",
      "type": "function"
    },
    {
      "constant": false,
      "inputs": [
        {
          "name": "id",
          "type": "uint256"
        },
        {
          "name": "_contactnumber",
          "type": "string"
        },
        {
          "name": "_residentialaddress",
          "type": "string"
        }
      ],
      "name": "updatePatient",
      "outputs": [],
      "payable": false,
      "stateMutability": "nonpayable",
      "type": "function"
    }
  ],
  "bytecode": "0x6080604052600080553480156200001557600080fd5b50620001c16040805190810160405280600481526020017f4a61636b000000000000000000000000000000000000000000000000000000008152506040805190810160405280600a81526020017f32352f31322f31393930000000000000000000000000000000000000000000008152506040805190810160405280600481526020017f4d616c65000000000000000000000000000000000000000000000000000000008152506040805190810160405280600881526020017f3930313233343536000000000000000000000000000000000000000000000000815250606060405190810160405280602281526020017f426c6b20313020436c656d656e746920576179202330382d303120533630303181526020017f3233000000000000000000000000000000000000000000000000000000000000815250606060405190810160405280602a81526020017f307831453538316131363532613036363946314137434439664132313332623781526020017f3261306146653636314400000000000000000000000000000000000000000000815250620001c7640100000000026401000000009004565b62000631565b6000805460019081018083556040805160e08101825282815260208082018c81528284018c9052606083018b9052608083018a905260a0830189905260c08301889052938652848152919094208451815591518051929362000232939085019291909101906200058c565b5060408201518051620002509160028401916020909101906200058c565b50606082015180516200026e9160038401916020909101906200058c565b50608082015180516200028c9160048401916020909101906200058c565b5060a08201518051620002aa9160058401916020909101906200058c565b5060c08201518051620002c89160068401916020909101906200058c565b509050507f0b61db364c8fdce0596b4ea82f47d5bd1ea09d3973fd59dca7d11c4a42081f646000548787878787876040518088815260200180602001806020018060200180602001806020018060200187810387528d818151815260200191508051906020019080838360005b838110156200034f57818101518382015260200162000335565b50505050905090810190601f1680156200037d5780820380516001836020036101000a031916815260200191505b5087810386528c5181528c516020918201918e019080838360005b83811015620003b257818101518382015260200162000398565b50505050905090810190601f168015620003e05780820380516001836020036101000a031916815260200191505b5087810385528b5181528b516020918201918d019080838360005b8381101562000415578181015183820152602001620003fb565b50505050905090810190601f168015620004435780820380516001836020036101000a031916815260200191505b5087810384528a5181528a516020918201918c019080838360005b83811015620004785781810151838201526020016200045e565b50505050905090810190601f168015620004a65780820380516001836020036101000a031916815260200191505b5087810383528951815289516020918201918b019080838360005b83811015620004db578181015183820152602001620004c1565b50505050905090810190601f168015620005095780820380516001836020036101000a031916815260200191505b5087810382528851815288516020918201918a019080838360005b838110156200053e57818101518382015260200162000524565b50505050905090810190601f1680156200056c5780820380516001836020036101000a031916815260200191505b509d505050505050505050505050505060405180910390a1505050505050565b828054600181600116156101000203166002900490600052602060002090601f016020900481019282601f10620005cf57805160ff1916838001178555620005ff565b82800160010185558215620005ff579182015b82811115620005ff578251825591602001919060010190620005e2565b506200060d92915062000611565b5090565b6200062e91905b808211156200060d576000815560010162000618565b90565b61171480620006416000396000f3fe60806040526004361061006c5763ffffffff7c01000000000000000000000000000000000000000000000000000000006000350416636b9603a0811461007157806393119a83146101b4578063a0303c411461045b578063a422ea7314610482578063a4f3cc2314610535575b600080fd5b34801561007d57600080fd5b506101b26004803603606081101561009457600080fd5b813591908101906040810160208201356401000000008111156100b657600080fd5b8201836020820111156100c857600080fd5b803590602001918460018302840111640100000000831117156100ea57600080fd5b91908080601f016020809104026020016040519081016040528093929190818152602001838380828437600092019190915250929594936020810193503591505064010000000081111561013d57600080fd5b82018360208201111561014f57600080fd5b8035906020019184600183028401116401000000008311171561017157600080fd5b91908080601f01602080910402602001604051908101604052809392919081815260200183838082843760009201919091525092955061088b945050505050565b005b3480156101c057600080fd5b506101de600480360360208110156101d757600080fd5b50356109e4565b6040518088815260200180602001806020018060200180602001806020018060200187810387528d818151815260200191508051906020019080838360005b8381101561023557818101518382015260200161021d565b50505050905090810190601f1680156102625780820380516001836020036101000a031916815260200191505b5087810386528c5181528c516020918201918e019080838360005b8381101561029557818101518382015260200161027d565b50505050905090810190601f1680156102c25780820380516001836020036101000a031916815260200191505b5087810385528b5181528b516020918201918d019080838360005b838110156102f55781810151838201526020016102dd565b50505050905090810190601f1680156103225780820380516001836020036101000a031916815260200191505b5087810384528a5181528a516020918201918c019080838360005b8381101561035557818101518382015260200161033d565b50505050905090810190601f1680156103825780820380516001836020036101000a031916815260200191505b5087810383528951815289516020918201918b019080838360005b838110156103b557818101518382015260200161039d565b50505050905090810190601f1680156103e25780820380516001836020036101000a031916815260200191505b5087810382528851815288516020918201918a019080838360005b838110156104155781810151838201526020016103fd565b50505050905090810190601f1680156104425780820380516001836020036101000a031916815260200191505b509d505050505050505050505050505060405180910390f35b34801561046757600080fd5b50610470610d5c565b60408051918252519081900360200190f35b34801561048e57600080fd5b506101de600480360360208110156104a557600080fd5b8101906020810181356401000000008111156104c057600080fd5b8201836020820111156104d257600080fd5b803590602001918460018302840111640100000000831117156104f457600080fd5b91908080601f016020809104026020016040519081016040528093929190818152602001838380828437600092019190915250929550610d62945050505050565b34801561054157600080fd5b506101b2600480360360c081101561055857600080fd5b81019060208101813564010000000081111561057357600080fd5b82018360208201111561058557600080fd5b803590602001918460018302840111640100000000831117156105a757600080fd5b91908080601f01602080910402602001604051908101604052809392919081815260200183838082843760009201919091525092959493602081019350359150506401000000008111156105fa57600080fd5b82018360208201111561060c57600080fd5b8035906020019184600183028401116401000000008311171561062e57600080fd5b91908080601f016020809104026020016040519081016040528093929190818152602001838380828437600092019190915250929594936020810193503591505064010000000081111561068157600080fd5b82018360208201111561069357600080fd5b803590602001918460018302840111640100000000831117156106b557600080fd5b91908080601f016020809104026020016040519081016040528093929190818152602001838380828437600092019190915250929594936020810193503591505064010000000081111561070857600080fd5b82018360208201111561071a57600080fd5b8035906020019184600183028401116401000000008311171561073c57600080fd5b91908080601f016020809104026020016040519081016040528093929190818152602001838380828437600092019190915250929594936020810193503591505064010000000081111561078f57600080fd5b8201836020820111156107a157600080fd5b803590602001918460018302840111640100000000831117156107c357600080fd5b91908080601f016020809104026020016040519081016040528093929190818152602001838380828437600092019190915250929594936020810193503591505064010000000081111561081657600080fd5b82018360208201111561082857600080fd5b8035906020019184600183028401116401000000008311171561084a57600080fd5b91908080601f016020809104026020016040519081016040528093929190818152602001838380828437600092019190915250929550611268945050505050565b600083815260016020908152604090912083516108b09260049092019185019061160f565b50600083815260016020908152604090912082516108d69260059092019184019061160f565b507fc1fdae1aa238a14149f13bc47ec4a1c106aa10b5c96acaa16129fa42d43c580a838383604051808481526020018060200180602001838103835285818151815260200191508051906020019080838360005b8381101561094257818101518382015260200161092a565b50505050905090810190601f16801561096f5780820380516001836020036101000a031916815260200191505b50838103825284518152845160209182019186019080838360005b838110156109a257818101518382015260200161098a565b50505050905090810190601f1680156109cf5780820380516001836020036101000a031916815260200191505b509550505050505060405180910390a1505050565b600160208181526000928352604092839020805481840180548651600296821615610100026000190190911695909504601f81018590048502860185019096528585529094919392909190830182828015610a805780601f10610a5557610100808354040283529160200191610a80565b820191906000526020600020905b815481529060010190602001808311610a6357829003601f168201915b50505060028085018054604080516020601f6000196101006001871615020190941695909504928301859004850281018501909152818152959695945090925090830182828015610b125780601f10610ae757610100808354040283529160200191610b12565b820191906000526020600020905b815481529060010190602001808311610af557829003601f168201915b5050505060038301805460408051602060026001851615610100026000190190941693909304601f8101849004840282018401909252818152949594935090830182828015610ba25780601f10610b7757610100808354040283529160200191610ba2565b820191906000526020600020905b815481529060010190602001808311610b8557829003601f168201915b5050505060048301805460408051602060026001851615610100026000190190941693909304601f8101849004840282018401909252818152949594935090830182828015610c325780601f10610c0757610100808354040283529160200191610c32565b820191906000526020600020905b815481529060010190602001808311610c1557829003601f168201915b5050505060058301805460408051602060026001851615610100026000190190941693909304601f8101849004840282018401909252818152949594935090830182828015610cc25780601f10610c9757610100808354040283529160200191610cc2565b820191906000526020600020905b815481529060010190602001808311610ca557829003601f168201915b5050505060068301805460408051602060026001851615610100026000190190941693909304601f8101849004840282018401909252818152949594935090830182828015610d525780601f10610d2757610100808354040283529160200191610d52565b820191906000526020600020905b815481529060010190602001808311610d3557829003601f168201915b5050505050905087565b60005481565b60006060808080808060015b600054811161125b57600160008281526020019081526020016000206006016040516020018082805460018160011615610100020316600290048015610deb5780601f10610dc9576101008083540402835291820191610deb565b820191906000526020600020905b815481529060010190602001808311610dd7575b505091505060405160208183030381529060405280519060200120896040516020018082805190602001908083835b60208310610e395780518252601f199092019160209182019101610e1a565b6001836020036101000a03801982511681845116808217855250505050505090500191505060405160208183030381529060405280519060200120141561125357610e8261168d565b600082815260016020818152604092839020835160e0810185528154815281840180548651600296821615610100026000190190911695909504601f81018590048502860185019096528585529094919385840193909290830182828015610f2b5780601f10610f0057610100808354040283529160200191610f2b565b820191906000526020600020905b815481529060010190602001808311610f0e57829003601f168201915b5050509183525050600282810180546040805160206001841615610100026000190190931694909404601f81018390048302850183019091528084529381019390830182828015610fbd5780601f10610f9257610100808354040283529160200191610fbd565b820191906000526020600020905b815481529060010190602001808311610fa057829003601f168201915b505050918352505060038201805460408051602060026001851615610100026000190190941693909304601f81018490048402820184019092528181529382019392918301828280156110515780601f1061102657610100808354040283529160200191611051565b820191906000526020600020905b81548152906001019060200180831161103457829003601f168201915b505050918352505060048201805460408051602060026001851615610100026000190190941693909304601f81018490048402820184019092528181529382019392918301828280156110e55780601f106110ba576101008083540402835291602001916110e5565b820191906000526020600020905b8154815290600101906020018083116110c857829003601f168201915b505050918352505060058201805460408051602060026001851615610100026000190190941693909304601f81018490048402820184019092528181529382019392918301828280156111795780601f1061114e57610100808354040283529160200191611179565b820191906000526020600020905b81548152906001019060200180831161115c57829003601f168201915b505050918352505060068201805460408051602060026001851615610100026000190190941693909304601f810184900484028201840190925281815293820193929183018282801561120d5780601f106111e25761010080835404028352916020019161120d565b820191906000526020600020905b8154815290600101906020018083116111f057829003601f168201915b5050509190925250508151602083015160408401516060850151608086015160a087015160c090970151949f50929d50909b509950975091955090935061125d92505050565b600101610d6e565b505b919395979092949650565b6000805460019081018083556040805160e08101825282815260208082018c81528284018c9052606083018b9052608083018a905260a0830189905260c0830188905293865284815291909420845181559151805192936112d19390850192919091019061160f565b50604082015180516112ed91600284019160209091019061160f565b506060820151805161130991600384019160209091019061160f565b506080820151805161132591600484019160209091019061160f565b5060a0820151805161134191600584019160209091019061160f565b5060c0820151805161135d91600684019160209091019061160f565b509050507f0b61db364c8fdce0596b4ea82f47d5bd1ea09d3973fd59dca7d11c4a42081f646000548787878787876040518088815260200180602001806020018060200180602001806020018060200187810387528d818151815260200191508051906020019080838360005b838110156113e25781810151838201526020016113ca565b50505050905090810190601f16801561140f5780820380516001836020036101000a031916815260200191505b5087810386528c5181528c516020918201918e019080838360005b8381101561144257818101518382015260200161142a565b50505050905090810190601f16801561146f5780820380516001836020036101000a031916815260200191505b5087810385528b5181528b516020918201918d019080838360005b838110156114a257818101518382015260200161148a565b50505050905090810190601f1680156114cf5780820380516001836020036101000a031916815260200191505b5087810384528a5181528a516020918201918c019080838360005b838110156115025781810151838201526020016114ea565b50505050905090810190601f16801561152f5780820380516001836020036101000a031916815260200191505b5087810383528951815289516020918201918b019080838360005b8381101561156257818101518382015260200161154a565b50505050905090810190601f16801561158f5780820380516001836020036101000a031916815260200191505b5087810382528851815288516020918201918a019080838360005b838110156115c25781810151838201526020016115aa565b50505050905090810190601f1680156115ef5780820380516001836020036101000a031916815260200191505b509d505050505050505050505050505060405180910390a1505050505050565b828054600181600116156101000203166002900490600052602060002090601f016020900481019282601f1061165057805160ff191683800117855561167d565b8280016001018555821561167d579182015b8281111561167d578251825591602001919060010190611662565b506116899291506116cb565b5090565b60e060405190810160405280600081526020016060815260200160608152602001606081526020016060815260200160608152602001606081525090565b6116e591905b8082111561168957600081556001016116d1565b9056fea165627a7a72305820aaebb38edd9dd4924c0fbbc73c95ab387d936deac2e5462b344ea43d5b3ee4c10029",
  "source": "pragma solidity ^0.5.0;\r\n\r\ncontract HealthcareRecord {\r\n    uint public patientCount = 0;\r\n\r\n    struct Patient {\r\n        uint id;\r\n        string name;\r\n        string dob;\r\n        string gender;\r\n        string contactnumber;\r\n        string residentialaddress;\r\n        string bcaddress;\r\n    }\r\n\r\n    // dynamic size, need to reference one by one\r\n    mapping(uint => Patient) public patients;\r\n\r\n    constructor() public {\r\n        addPatient(\"Jack\", \"25/12/1990\", \"Male\", \"90123456\", \"Blk 10 Clementi Way #08-01 S600123\", \"0x1E581a1652a0669F1A7CD9fA2132b72a0aFe661D\");\r\n    }\r\n\r\n    function addPatient(string memory _name, string memory _dob, string memory _gender,\r\n        string memory _contactnumber, string memory _residentialaddress, string memory _bcaddress) public {\r\n        patientCount ++;\r\n        patients[patientCount] = Patient(patientCount, _name, _dob, _gender, _contactnumber, _residentialaddress, _bcaddress);\r\n        emit PatientAdded(patientCount, _name, _dob, _gender, _contactnumber, _residentialaddress, _bcaddress);\r\n    }\r\n\r\n    function viewPatient(string memory _bcaddress) public view returns (uint id, string memory, string memory,\r\n    string memory, string memory, string memory, string memory) {\r\n        for (uint i = 1; i <= patientCount; i++) {\r\n            if (keccak256(abi.encodePacked(_bcaddress)) == keccak256(abi.encodePacked(patients[i].bcaddress))) {\r\n                Patient memory p = patients[i];\r\n                return (p.id, p.name, p.dob, p.gender, p.contactnumber, p.residentialaddress, p.bcaddress);\r\n            }\r\n        }\r\n    }\r\n\r\n    function updatePatient(uint id, string memory _contactnumber, string memory _residentialaddress) public {\r\n        patients[id].contactnumber = _contactnumber;\r\n        patients[id].residentialaddress = _residentialaddress;\r\n        emit PatientUpdated(id,  _contactnumber, _residentialaddress);\r\n    }\r\n\r\n    event PatientAdded(\r\n        uint id,\r\n        string name,\r\n        string dob,\r\n        string gender,\r\n        string contactnumber,\r\n        string residentialaddress,\r\n        string bcaddress\r\n    );\r\n\r\n    event PatientUpdated(\r\n        uint id,\r\n        string contactnumber,\r\n        string residentialaddress\r\n    );\r\n}",
  "sourcePath": "C:/Users/user/Desktop/CG4001 FYP/FYP Project/contracts/HealthcareRecord.sol",
  "compiler": {
    "name": "solc",
    "version": "0.5.0+commit.1d4f565a.Emscripten.clang"
  },
  "schemaVersion": "3.0.1",
  "updatedAt": "2020-04-12T18:01:23.709Z",
  "devdoc": {
    "methods": {}
  },
  "userdoc": {
    "methods": {}
  }
}